:040800000BEF08F002
:101000000053746F707761746368202020485734F0
:10101000200000000000926A9368946A956A966ABC
:10102000806A816A826A836A846A0001DA6BDB6B98
:10103000DE6BDF6BE06BE16B0F0EC16EC0EC09F095
:101040000A0EE56F000EE66BF2EC09F0000EE36BA2
:10105000A3EC09F0DC6BDD6BDC51010FE26FE2C049
:10106000F6FF100EF76E000EF86E0800F55006EC55
:101070000AF0DC4BDD2B140EDC5D000EDD5958E26E
:10108000EBD70001E04BE12B580EE05D020EE15979
:101090000DE3DE4BDF2BE06BE16B580EDE5D020EE5
:1010A000DF5904E3DA4BDB2BDE6BDF6BE36B010E06
:1010B000A3EC09F0E86B020EE76FDAC0E3F0DBC0E7
:1010C000E4F0E56BE66B9CEC08F03A0E06EC0AF0F7
:1010D000E86B020EE76FDEC0E3F0DFC0E4F0E56B23
:1010E000E66B9CEC08F03A0E06EC0AF0010EE86F95
:1010F000030EE76FE0C0E3F0E1C0E4F0E56BE66B00
:101100009CEC08F0B90EE56F000EE66BF2EC09F00E
:1011100081A406D0E06BE16BDE6BDF6BDA6BDB6B1F
:1011200081A0AFD7000EE36BE46B00EC04F0A9D70D
:1011300081A200EF04F0A5D7E6AF0BD02D0E06EC90
:101140000AF0E61FE51FE41FE36D000EE423E5232C
:10115000E623F46AE90EF424E96EEA6A000EEA2254
:101160000A0EF86F000EF96BFA6BFB6BE3C0F4F03C
:10117000E4C0F5F0E5C0F6F0E6C0F7F059EC09F090
:10118000F451EF6E0A0EF86F000EF96BFA6BFB6B01
:10119000E3C0F4F0E4C0F5F0E5C0F6F0E6C0F7F027
:1011A000FBEC08F0F4C0E3F0F5C0E4F0F6C0E5F0C5
:1011B000F7C0E6F0F42A090EF464CCD7E7C0F3FFD9
:1011C000F36601D0090CE851F36203D02E0E06EC51
:1011D0000AF0F3CFF3F0FF0EF327E90EF325E96EE3
:1011E000EA6A000EEA22EF50300F06EC0AF0F3062E
:1011F000F366E9D71200E16AFBAF0AD0FB1FFA1FC2
:10120000F91FF86D000EF923FA23FB23010EE16E9E
:10121000F7AF0AD0F71FF61FF51FF46D000EF52388
:10122000F623F723010EE11AFC6BFD6BFE6BFF6BDF
:10123000FB51F811F911FA1129E0010ED96ED8907D
:10124000FBBF07D0F837F937FA37FB37D92AF7D77A
:10125000D890FC37FD37FE37FF37F851F45DF95170
:10126000F559FA51F659FB51F75909E3F851F45F72
:10127000F951F55BFA51F65BFB51F75BFC81D890B5
:10128000FB33FA33F933F833D92EE2D7E15008E0D3
:10129000FF1FFE1FFD1FFC6D000EFD23FE23FF231D
:1012A000FCC0F4F0FDC0F5F0FEC0F6F0FFC0F7F0B2
:1012B0001200E16AF7AF0AD0F71FF61FF51FF46DB1
:1012C000000EF523F623F723010EE16EFBAF08D0E5
:1012D000FB1FFA1FF91FF86D000EF923FA23FB23F9
:1012E000FB51F811F911FA1123E0010ED96EFBBF81
:1012F00007D0D890F837F937FA37FB37D92AF7D71C
:10130000F851F45DF951F559FA51F659FB51F75975
:1013100008E3F851F45FF951F55BFA51F65BFB51C4
:10132000F75BD890FB33FA33F933F833D92EE8D78B
:10133000E15008E0F71FF61FF51FF46D000EF523CE
:10134000F623F7231200E8CFE9FFE96604D0E35162
:10135000800FDAEC09F0E90404E1E351C00FDAECA4
:1013600009F0E950020A04E1E351940FDAEC09F0C4
:10137000E950030AD8A41200E351D40FDAEF09F0C0
:10138000010E956E8392330EDAEC09F0320EDAEC30
:1013900009F0280EDAEC09F00E0EDAEC09F0010E75
:1013A000DAEC09F0060EDAEC09F0640EE56FE66B94
:1013B000F2EF09F0E8CFE1FF8394E1CFE4F0F00E23
:1013C00019EC0AF025EC0AF0E1CFE4F0E43BF00E72
:1013D000E41719EC0AF025EC0AF00A0EE56FE66B4B
:1013E000F2EF09F0F36AF46AE551F35CE651F45860
:1013F000D8B01200E76BE86BE74BE82B690EE75DAE
:10140000020EE859F9E3F34AF42AEED7E8CFE1FFF8
:101410008384E1CFF4F0F00E1FEC0AF025EC0AF023
:10142000E1CFF4F0F43BF00EF4171FEC0AF025EFD7
:101430000AF0E41783500F0BE411836E1200F417C7
:1014400083500F0BF411836E120083962EEC0AF07A
:1014500083862EEC0AF083962EEF0AF0D96AD92AF9
:08146000130ED964FCD7130C34
:00000001FF
