:0400000029EF08F0EC
:1010000000202020202020202044332020202020C9
:1010100020200000002020202020202020473320F6
:101020002020202020200000002020202020202020
:1010300020423320202020202020000000202020DB
:1010400020202020204534202020202020200000A7
:101050000000926A9368946A956A966A0F0EC16E50
:1010600020EC09F00A0E556E000E566A52EC09F09B
:1010700081A053D0010EF66E100EF76E000EF86EC2
:1010800000EE02F0140E0900F5CFEEFFE82EFBD7BC
:10109000000E536AE8EC08F0F36AF46AF350020FAA
:1010A00016EC09F066EC09F0F34AF42A11EC09F0A9
:1010B000F5E38270006A016A004A012A4E0E005C64
:1010C000080E0158D5E2F8D7150EF66E100EF76E21
:1010D000000EF86E00EE16F0140E0900F5CFEEFFCC
:1010E000E82EFBD7000E536AE8EC08F0F36AF46AC6
:1010F000F350160F16EC09F066EC09F0F34AF42AE7
:1011000011EC09F0F5E38270006A016A004A012AD5
:10111000380E005C060E0158F9E381A22AD0D4D71C
:10112000290EF66E100EF76E000EF86E00EE2AF025
:10113000140E0900F5CFEEFFE82EFBD7000E536A20
:10114000E8EC08F0F36AF46AF3502A0F16EC09F0A1
:1011500066EC09F0F34AF42A11EC09F0F5E3827029
:10116000006A016A004A012AF00E005C040E015870
:10117000F9E381A42AD0D4D73D0EF66E100EF76E97
:10118000000EF86E00EE3EF0140E0900F5CFEEFFF3
:10119000E82EFBD7000E536AE8EC08F0F36AF46A15
:1011A000F3503E0F16EC09F066EC09F0F34AF42A0E
:1011B00011EC09F0F5E38270006A016A004A012A25
:1011C000B30E005C030E0158F9E381A651D7D4D7C2
:1011D000E8CFD9FFD96604D05350800F3AEC09F01C
:1011E000D90404E15350C00F3AEC09F0D950020A77
:1011F00004E15350940F3AEC09F0D950030AD8A4F3
:1012000012005350D40F3AEF09F0541683500F0BCD
:101210005410836E1200531683500F0B5310836EBD
:101220001200140EF35C000EF4581200526E52C0FD
:10123000F6FF100EF76E000EF86E0800F550120063
:10124000010E956E8392330E3AEC09F0320E3AECB1
:1012500009F0280E3AEC09F00E0E3AEC09F0010EF6
:101260003AEC09F0060E3AEC09F0640E556E566A37
:1012700052EF09F0E8CFF3FF8394F3CF54F0F00E70
:1012800005EC09F079EC09F0F3CF54F0543AF00E84
:10129000541605EC09F079EC09F00A0E556E566A01
:1012A00052EF09F0F36AF46A5550F35C5650F45863
:1012B000D8B01200576A586A574A582A690E575CC4
:1012C000020E5858F9E3F34AF42AEED7E8CFD9FFD3
:1012D0008384D9CF53F0F00E0BEC09F079EC09F0D0
:1012E000D9CF53F0533AF00E53160BEC09F079EFC7
:1012F00009F0839682EC09F0838682EC09F08396EC
:1013000082EF09F0E96AE92A130EE964FCD7130CAD
:00000001FF
